{
  "contractName": "GMBCToken",
  "abi": [
    {
      "constant": true,
      "inputs": [],
      "name": "name",
      "outputs": [
        {
          "name": "",
          "type": "string"
        }
      ],
      "payable": false,
      "stateMutability": "view",
      "type": "function"
    },
    {
      "constant": true,
      "inputs": [],
      "name": "decimals",
      "outputs": [
        {
          "name": "",
          "type": "uint8"
        }
      ],
      "payable": false,
      "stateMutability": "view",
      "type": "function"
    },
    {
      "constant": true,
      "inputs": [],
      "name": "owner",
      "outputs": [
        {
          "name": "",
          "type": "address"
        }
      ],
      "payable": false,
      "stateMutability": "view",
      "type": "function"
    },
    {
      "constant": true,
      "inputs": [],
      "name": "symbol",
      "outputs": [
        {
          "name": "",
          "type": "string"
        }
      ],
      "payable": false,
      "stateMutability": "view",
      "type": "function"
    },
    {
      "constant": true,
      "inputs": [],
      "name": "crowdsale",
      "outputs": [
        {
          "name": "",
          "type": "address"
        }
      ],
      "payable": false,
      "stateMutability": "view",
      "type": "function"
    },
    {
      "constant": false,
      "inputs": [
        {
          "name": "newOwner",
          "type": "address"
        }
      ],
      "name": "changeOwner",
      "outputs": [],
      "payable": false,
      "stateMutability": "nonpayable",
      "type": "function"
    },
    {
      "anonymous": false,
      "inputs": [
        {
          "indexed": false,
          "name": "backer",
          "type": "address"
        },
        {
          "indexed": false,
          "name": "_value",
          "type": "uint256"
        }
      ],
      "name": "Burned",
      "type": "event"
    },
    {
      "anonymous": false,
      "inputs": [
        {
          "indexed": true,
          "name": "_from",
          "type": "address"
        },
        {
          "indexed": true,
          "name": "_to",
          "type": "address"
        },
        {
          "indexed": false,
          "name": "_value",
          "type": "uint256"
        }
      ],
      "name": "Transfer",
      "type": "event"
    },
    {
      "anonymous": false,
      "inputs": [
        {
          "indexed": true,
          "name": "_owner",
          "type": "address"
        },
        {
          "indexed": true,
          "name": "_spender",
          "type": "address"
        },
        {
          "indexed": false,
          "name": "_value",
          "type": "uint256"
        }
      ],
      "name": "Approval",
      "type": "event"
    },
    {
      "constant": false,
      "inputs": [
        {
          "name": "newCrowdsale",
          "type": "address"
        }
      ],
      "name": "changeCrowdsale",
      "outputs": [],
      "payable": false,
      "stateMutability": "nonpayable",
      "type": "function"
    },
    {
      "constant": true,
      "inputs": [],
      "name": "totalSupply",
      "outputs": [
        {
          "name": "totalTokenCount",
          "type": "uint256"
        }
      ],
      "payable": false,
      "stateMutability": "view",
      "type": "function"
    },
    {
      "constant": true,
      "inputs": [
        {
          "name": "_owner",
          "type": "address"
        }
      ],
      "name": "balanceOf",
      "outputs": [
        {
          "name": "balance",
          "type": "uint256"
        }
      ],
      "payable": false,
      "stateMutability": "view",
      "type": "function"
    },
    {
      "constant": true,
      "inputs": [
        {
          "name": "_owner",
          "type": "address"
        }
      ],
      "name": "getUnlockTime",
      "outputs": [
        {
          "name": "unlockTime",
          "type": "uint256"
        }
      ],
      "payable": false,
      "stateMutability": "view",
      "type": "function"
    },
    {
      "constant": true,
      "inputs": [
        {
          "name": "_owner",
          "type": "address"
        }
      ],
      "name": "isUnlocked",
      "outputs": [
        {
          "name": "unlocked",
          "type": "bool"
        }
      ],
      "payable": false,
      "stateMutability": "view",
      "type": "function"
    },
    {
      "constant": false,
      "inputs": [
        {
          "name": "_to",
          "type": "address"
        },
        {
          "name": "_amount",
          "type": "uint256"
        }
      ],
      "name": "transfer",
      "outputs": [
        {
          "name": "success",
          "type": "bool"
        }
      ],
      "payable": false,
      "stateMutability": "nonpayable",
      "type": "function"
    },
    {
      "constant": false,
      "inputs": [
        {
          "name": "_from",
          "type": "address"
        },
        {
          "name": "_to",
          "type": "address"
        },
        {
          "name": "_amount",
          "type": "uint256"
        }
      ],
      "name": "transferFrom",
      "outputs": [
        {
          "name": "success",
          "type": "bool"
        }
      ],
      "payable": false,
      "stateMutability": "nonpayable",
      "type": "function"
    },
    {
      "constant": false,
      "inputs": [
        {
          "name": "_spender",
          "type": "address"
        },
        {
          "name": "_amount",
          "type": "uint256"
        }
      ],
      "name": "approve",
      "outputs": [
        {
          "name": "success",
          "type": "bool"
        }
      ],
      "payable": false,
      "stateMutability": "nonpayable",
      "type": "function"
    },
    {
      "constant": true,
      "inputs": [
        {
          "name": "_owner",
          "type": "address"
        },
        {
          "name": "_spender",
          "type": "address"
        }
      ],
      "name": "allowance",
      "outputs": [
        {
          "name": "remaining",
          "type": "uint256"
        }
      ],
      "payable": false,
      "stateMutability": "view",
      "type": "function"
    },
    {
      "constant": false,
      "inputs": [
        {
          "name": "target",
          "type": "address"
        },
        {
          "name": "mintedAmount",
          "type": "uint256"
        },
        {
          "name": "lockTime",
          "type": "uint256"
        }
      ],
      "name": "mint",
      "outputs": [],
      "payable": false,
      "stateMutability": "nonpayable",
      "type": "function"
    },
    {
      "constant": false,
      "inputs": [
        {
          "name": "target",
          "type": "address"
        },
        {
          "name": "burnedAmount",
          "type": "uint256"
        }
      ],
      "name": "burn",
      "outputs": [],
      "payable": false,
      "stateMutability": "nonpayable",
      "type": "function"
    }
  ],
  "bytecode": "0x60606040526000600155336000806101000a81548173ffffffffffffffffffffffffffffffffffffffff021916908373ffffffffffffffffffffffffffffffffffffffff1602179055506114cc806100586000396000f3006060604052600436106100f1576000357c0100000000000000000000000000000000000000000000000000000000900463ffffffff16806306fdde03146100f6578063095ea7b314610184578063156e29f6146101de57806318160ddd1461022957806323b872dd146102525780632bbf532a146102cb578063313ce5671461031c57806370a082311461034b5780638da5cb5b1461039857806395d89b41146103ed5780639c1e03a01461047b5780639dc29fac146104d0578063a6f9dae114610512578063a9059cbb1461054b578063ad2b14d1146105a5578063dbed1e88146105de578063dd62ed3e1461062b575b600080fd5b341561010157600080fd5b610109610697565b6040518080602001828103825283818151815260200191508051906020019080838360005b8381101561014957808201518184015260208101905061012e565b50505050905090810190601f1680156101765780820380516001836020036101000a031916815260200191505b509250505060405180910390f35b341561018f57600080fd5b6101c4600480803573ffffffffffffffffffffffffffffffffffffffff169060200190919080359060200190919050506106d0565b604051808215151515815260200191505060405180910390f35b34156101e957600080fd5b610227600480803573ffffffffffffffffffffffffffffffffffffffff169060200190919080359060200190919080359060200190919050506107c2565b005b341561023457600080fd5b61023c6109b3565b6040518082815260200191505060405180910390f35b341561025d57600080fd5b6102b1600480803573ffffffffffffffffffffffffffffffffffffffff1690602001909190803573ffffffffffffffffffffffffffffffffffffffff169060200190919080359060200190919050506109bd565b604051808215151515815260200191505060405180910390f35b34156102d657600080fd5b610302600480803573ffffffffffffffffffffffffffffffffffffffff16906020019091905050610cd5565b604051808215151515815260200191505060405180910390f35b341561032757600080fd5b61032f610d20565b604051808260ff1660ff16815260200191505060405180910390f35b341561035657600080fd5b610382600480803573ffffffffffffffffffffffffffffffffffffffff16906020019091905050610d25565b6040518082815260200191505060405180910390f35b34156103a357600080fd5b6103ab610d6e565b604051808273ffffffffffffffffffffffffffffffffffffffff1673ffffffffffffffffffffffffffffffffffffffff16815260200191505060405180910390f35b34156103f857600080fd5b610400610d93565b6040518080602001828103825283818151815260200191508051906020019080838360005b83811015610440578082015181840152602081019050610425565b50505050905090810190601f16801561046d5780820380516001836020036101000a031916815260200191505b509250505060405180910390f35b341561048657600080fd5b61048e610dcc565b604051808273ffffffffffffffffffffffffffffffffffffffff1673ffffffffffffffffffffffffffffffffffffffff16815260200191505060405180910390f35b34156104db57600080fd5b610510600480803573ffffffffffffffffffffffffffffffffffffffff16906020019091908035906020019091905050610df2565b005b341561051d57600080fd5b610549600480803573ffffffffffffffffffffffffffffffffffffffff16906020019091905050611057565b005b341561055657600080fd5b61058b600480803573ffffffffffffffffffffffffffffffffffffffff169060200190919080359060200190919050506110f5565b604051808215151515815260200191505060405180910390f35b34156105b057600080fd5b6105dc600480803573ffffffffffffffffffffffffffffffffffffffff169060200190919050506112fa565b005b34156105e957600080fd5b610615600480803573ffffffffffffffffffffffffffffffffffffffff16906020019091905050611399565b6040518082815260200191505060405180910390f35b341561063657600080fd5b610681600480803573ffffffffffffffffffffffffffffffffffffffff1690602001909190803573ffffffffffffffffffffffffffffffffffffffff169060200190919050506113e2565b6040518082815260200191505060405180910390f35b6040805190810160405280600481526020017f474d42430000000000000000000000000000000000000000000000000000000081525081565b600081600460003373ffffffffffffffffffffffffffffffffffffffff1673ffffffffffffffffffffffffffffffffffffffff16815260200190815260200160002060008573ffffffffffffffffffffffffffffffffffffffff1673ffffffffffffffffffffffffffffffffffffffff168152602001908152602001600020819055508273ffffffffffffffffffffffffffffffffffffffff163373ffffffffffffffffffffffffffffffffffffffff167f8c5be1e5ebec7d5bd14f71427d1e84f3dd0314c0f7b2291e5b200ac8c7c3b925846040518082815260200191505060405180910390a36001905092915050565b6000809054906101000a900473ffffffffffffffffffffffffffffffffffffffff1673ffffffffffffffffffffffffffffffffffffffff163373ffffffffffffffffffffffffffffffffffffffff16148061086a5750600560009054906101000a900473ffffffffffffffffffffffffffffffffffffffff1673ffffffffffffffffffffffffffffffffffffffff163373ffffffffffffffffffffffffffffffffffffffff16145b151561087557600080fd5b60008211151561088457600080fd5b6108cd600260008573ffffffffffffffffffffffffffffffffffffffff1673ffffffffffffffffffffffffffffffffffffffff1681526020019081526020016000205483611469565b600260008573ffffffffffffffffffffffffffffffffffffffff1673ffffffffffffffffffffffffffffffffffffffff1681526020019081526020016000208190555061091c60015483611469565b60018190555080600360008573ffffffffffffffffffffffffffffffffffffffff1673ffffffffffffffffffffffffffffffffffffffff1681526020019081526020016000205410156109ae5780600360008573ffffffffffffffffffffffffffffffffffffffff1673ffffffffffffffffffffffffffffffffffffffff168152602001908152602001600020819055505b505050565b6000600154905090565b600081600260008673ffffffffffffffffffffffffffffffffffffffff1673ffffffffffffffffffffffffffffffffffffffff1681526020019081526020016000205410158015610a8a575081600460008673ffffffffffffffffffffffffffffffffffffffff1673ffffffffffffffffffffffffffffffffffffffff16815260200190815260200160002060003373ffffffffffffffffffffffffffffffffffffffff1673ffffffffffffffffffffffffffffffffffffffff1681526020019081526020016000205410155b8015610a965750600082115b8015610b215750600260008473ffffffffffffffffffffffffffffffffffffffff1673ffffffffffffffffffffffffffffffffffffffff1681526020019081526020016000205482600260008673ffffffffffffffffffffffffffffffffffffffff1673ffffffffffffffffffffffffffffffffffffffff1681526020019081526020016000205401115b8015610b325750610b3184610cd5565b5b15610cc95781600260008673ffffffffffffffffffffffffffffffffffffffff1673ffffffffffffffffffffffffffffffffffffffff1681526020019081526020016000206000828254039250508190555081600460008673ffffffffffffffffffffffffffffffffffffffff1673ffffffffffffffffffffffffffffffffffffffff16815260200190815260200160002060003373ffffffffffffffffffffffffffffffffffffffff1673ffffffffffffffffffffffffffffffffffffffff1681526020019081526020016000206000828254039250508190555081600260008573ffffffffffffffffffffffffffffffffffffffff1673ffffffffffffffffffffffffffffffffffffffff168152602001908152602001600020600082825401925050819055508273ffffffffffffffffffffffffffffffffffffffff168473ffffffffffffffffffffffffffffffffffffffff167fddf252ad1be2c89b69c2b068fc378daa952ba7f163c4a11628f55a4df523b3ef846040518082815260200191505060405180910390a360019050610cce565b600080fd5b9392505050565b600042600360008473ffffffffffffffffffffffffffffffffffffffff1673ffffffffffffffffffffffffffffffffffffffff16815260200190815260200160002054109050919050565b601281565b6000600260008373ffffffffffffffffffffffffffffffffffffffff1673ffffffffffffffffffffffffffffffffffffffff168152602001908152602001600020549050919050565b6000809054906101000a900473ffffffffffffffffffffffffffffffffffffffff1681565b6040805190810160405280600481526020017f474d42430000000000000000000000000000000000000000000000000000000081525081565b600560009054906101000a900473ffffffffffffffffffffffffffffffffffffffff1681565b6000809054906101000a900473ffffffffffffffffffffffffffffffffffffffff1673ffffffffffffffffffffffffffffffffffffffff163373ffffffffffffffffffffffffffffffffffffffff161480610e9a5750600560009054906101000a900473ffffffffffffffffffffffffffffffffffffffff1673ffffffffffffffffffffffffffffffffffffffff163373ffffffffffffffffffffffffffffffffffffffff16145b1515610ea557600080fd5b600081111515610eb457600080fd5b80600260008473ffffffffffffffffffffffffffffffffffffffff1673ffffffffffffffffffffffffffffffffffffffff16815260200190815260200160002054101515610f4e5780600260008473ffffffffffffffffffffffffffffffffffffffff1673ffffffffffffffffffffffffffffffffffffffff16815260200190815260200160002060008282540392505081905550610fd6565b600260008373ffffffffffffffffffffffffffffffffffffffff1673ffffffffffffffffffffffffffffffffffffffff1681526020019081526020016000205490506000600260008473ffffffffffffffffffffffffffffffffffffffff1673ffffffffffffffffffffffffffffffffffffffff168152602001908152602001600020819055505b610fe260015482611487565b6001819055507f696de425f79f4a40bc6d2122ca50507f0efbeabbff86a84871b7196ab8ea8df78282604051808373ffffffffffffffffffffffffffffffffffffffff1673ffffffffffffffffffffffffffffffffffffffff1681526020018281526020019250505060405180910390a15050565b6000809054906101000a900473ffffffffffffffffffffffffffffffffffffffff1673ffffffffffffffffffffffffffffffffffffffff163373ffffffffffffffffffffffffffffffffffffffff161415156110b257600080fd5b806000806101000a81548173ffffffffffffffffffffffffffffffffffffffff021916908373ffffffffffffffffffffffffffffffffffffffff16021790555050565b600081600260003373ffffffffffffffffffffffffffffffffffffffff1673ffffffffffffffffffffffffffffffffffffffff16815260200190815260200160002054101580156111465750600082115b80156111d15750600260008473ffffffffffffffffffffffffffffffffffffffff1673ffffffffffffffffffffffffffffffffffffffff1681526020019081526020016000205482600260008673ffffffffffffffffffffffffffffffffffffffff1673ffffffffffffffffffffffffffffffffffffffff1681526020019081526020016000205401115b80156111e257506111e133610cd5565b5b156112ef5781600260003373ffffffffffffffffffffffffffffffffffffffff1673ffffffffffffffffffffffffffffffffffffffff1681526020019081526020016000206000828254039250508190555081600260008573ffffffffffffffffffffffffffffffffffffffff1673ffffffffffffffffffffffffffffffffffffffff168152602001908152602001600020600082825401925050819055508273ffffffffffffffffffffffffffffffffffffffff163373ffffffffffffffffffffffffffffffffffffffff167fddf252ad1be2c89b69c2b068fc378daa952ba7f163c4a11628f55a4df523b3ef846040518082815260200191505060405180910390a3600190506112f4565b600080fd5b92915050565b6000809054906101000a900473ffffffffffffffffffffffffffffffffffffffff1673ffffffffffffffffffffffffffffffffffffffff163373ffffffffffffffffffffffffffffffffffffffff1614151561135557600080fd5b80600560006101000a81548173ffffffffffffffffffffffffffffffffffffffff021916908373ffffffffffffffffffffffffffffffffffffffff16021790555050565b6000600360008373ffffffffffffffffffffffffffffffffffffffff1673ffffffffffffffffffffffffffffffffffffffff168152602001908152602001600020549050919050565b6000600460008473ffffffffffffffffffffffffffffffffffffffff1673ffffffffffffffffffffffffffffffffffffffff16815260200190815260200160002060008373ffffffffffffffffffffffffffffffffffffffff1673ffffffffffffffffffffffffffffffffffffffff16815260200190815260200160002054905092915050565b600080828401905083811015151561147d57fe5b8091505092915050565b600081831015151561149557fe5b8183039050929150505600a165627a7a72305820a35ade2ac6205d20d10771cd10ff23149836cc51670b98332076c5cfcc81f0aa0029",
  "source": "pragma solidity ^0.4.15;\r\n\r\nimport \"./owned.sol\";\r\nimport \"./ERC20.sol\";\r\n\r\n\r\ncontract GMBCToken is ERC20, owned \r\n{\r\n\tstring public constant symbol = \"GMBC\";\r\n\tstring public constant name = \"GMBC\";\r\n\tuint8 public constant decimals = 18;\r\n\r\n\tuint256 _totalSupply = 0;\r\n\t\r\n\tevent Burned(address backer, uint _value);\r\n \r\n\t// Balances for each account\r\n\tmapping(address => uint256) balances;\r\n\r\n\tmapping(address => uint256) lockedTillTime;\r\n \r\n\t// Owner of account approves the transfer of an amount to another account\r\n\tmapping(address => mapping (address => uint256)) allowed;\r\n\r\n\taddress public crowdsale;\r\n\r\n\tfunction changeCrowdsale(address newCrowdsale) public onlyOwner \r\n\t{\r\n\t\tcrowdsale = newCrowdsale;\r\n\t}\r\n\r\n\tmodifier onlyOwnerOrCrowdsale \r\n\t{\r\n\t\trequire(msg.sender == owner || msg.sender == crowdsale);\r\n\t\t_;\r\n\t}\r\n\r\n\tfunction safeAdd(uint256 _x, uint256 _y) internal pure returns (uint256) \r\n\t{\r\n\t\tuint256 z = _x + _y;\r\n\t\tassert(z >= _x);\r\n\t\treturn z;\r\n\t}\r\n\r\n\tfunction safeSub(uint256 _x, uint256 _y) internal pure returns (uint256) \r\n\t{\r\n\t\tassert(_x >= _y);\r\n\t\treturn _x - _y;\r\n\t}\r\n\t\r\n\tfunction totalSupply() public constant returns (uint256 totalTokenCount) \r\n\t{\r\n\t\treturn _totalSupply;\r\n\t}\r\n \r\n\t// What is the balance of a particular account?\r\n\tfunction balanceOf(address _owner) public constant returns (uint256 balance) \r\n\t{\r\n\t\treturn balances[_owner];\r\n\t}\r\n\r\n\tfunction getUnlockTime(address _owner) public constant returns (uint256 unlockTime) \r\n\t{\r\n\t\treturn lockedTillTime[_owner];\r\n\t}\r\n\r\n\tfunction isUnlocked(address _owner) public constant returns (bool unlocked) \r\n\t{\r\n\t\treturn lockedTillTime[_owner] < now;\r\n\t}\r\n \r\n\t// Transfer the balance from owner's account to another account\r\n\tfunction transfer(address _to, uint256 _amount) public returns (bool success) \r\n\t{\r\n\t\tif (balances[msg.sender] >= _amount \r\n\t\t\t&& _amount > 0\r\n\t\t\t&& balances[_to] + _amount > balances[_to]\r\n\t\t\t&& isUnlocked(msg.sender)) \r\n\t\t{\r\n\t\t\tbalances[msg.sender] -= _amount;\r\n\t\t\tbalances[_to] += _amount;\r\n\t\t\tTransfer(msg.sender, _to, _amount);\r\n\t\t\treturn true;\r\n\t\t} else {\r\n\t\t\trevert();\r\n\t\t}\r\n\t}\r\n \r\n\t// Send _value amount of tokens from address _from to address _to\r\n\t// The transferFrom method is used for a withdraw workflow, allowing contracts to send\r\n\t// tokens on your behalf, for example to \"deposit\" to a contract address and/or to charge\r\n\t// fees in sub-currencies; the command should fail unless the _from account has\r\n\t// deliberately authorized the sender of the message via some mechanism; we propose\r\n\t// these standardized APIs for approval:\r\n\tfunction transferFrom(\r\n\t\taddress _from,\r\n\t\taddress _to,\r\n\t\tuint256 _amount\r\n\t) public returns (bool success) \r\n\t{\r\n\t\tif (balances[_from] >= _amount\r\n\t\t\t&& allowed[_from][msg.sender] >= _amount\r\n\t\t\t&& _amount > 0\r\n\t\t\t&& balances[_to] + _amount > balances[_to] \r\n\t\t\t&& isUnlocked(_from))\r\n\t\t{\r\n\t\t\tbalances[_from] -= _amount;\r\n\t\t\tallowed[_from][msg.sender] -= _amount;\r\n\t\t\tbalances[_to] += _amount;\r\n\t\t\tTransfer(_from, _to, _amount);\r\n\t\t\treturn true;\r\n\t\t} else {\r\n\t\t\trevert();\r\n\t\t}\r\n\t}\r\n \r\n\t// Allow _spender to withdraw from your account, multiple times, up to the _value amount.\r\n\t// If this function is called again it overwrites the current allowance with _value.\r\n\tfunction approve(address _spender, uint256 _amount) public returns (bool success) \r\n\t{\r\n\t\tallowed[msg.sender][_spender] = _amount;\r\n\t\tApproval(msg.sender, _spender, _amount);\r\n\t\treturn true;\r\n\t}\r\n \r\n\tfunction allowance(address _owner, address _spender) public constant returns (uint256 remaining) \r\n\t{\r\n\t\treturn allowed[_owner][_spender];\r\n\t}\r\n\r\n\tfunction mint(address target, uint256 mintedAmount, uint256 lockTime) public onlyOwnerOrCrowdsale \r\n\t{\r\n\t\trequire(mintedAmount > 0);\r\n\r\n\t\tbalances[target] = safeAdd(balances[target], mintedAmount);\r\n\t\t_totalSupply = safeAdd(_totalSupply, mintedAmount);\r\n\r\n\t\tif (lockedTillTime[target] < lockTime)\r\n\t\t{\r\n\t\t\tlockedTillTime[target] = lockTime;\r\n\t\t}\r\n\t}\r\n\r\n\tfunction burn(address target, uint256 burnedAmount) public onlyOwnerOrCrowdsale\r\n\t{\r\n\t\trequire(burnedAmount > 0);\r\n\r\n\t\tif (balances[target] >= burnedAmount)\r\n\t\t{\r\n\t\t\tbalances[target] -= burnedAmount;\r\n\t\t}\r\n\t\telse\r\n\t\t{\r\n\t\t\tburnedAmount = balances[target];\r\n\t\t\tbalances[target] = 0;\r\n\t\t}\r\n\r\n\t\t_totalSupply = safeSub(_totalSupply, burnedAmount);\r\n\t\tBurned(target, burnedAmount);\r\n\t}\r\n}\r\n",
  "sourcePath": "C:\\Users\\ignatiev\\Documents\\projects\\gamblica-gmbc\\contracts\\GMBCToken.sol",
  "compiler": {
    "name": "solc",
    "version": "0.4.19+commit.c4cbbb05.Emscripten.clang"
  },
  "schemaVersion": "1.0.1",
  "updatedAt": "2018-02-25T09:12:52.729Z"
}